:100000000C94FC000C94940F0C946D0F0C94240130
:100010000C9424010C9424010C9424010C942401CC
:100020000C9424010C9424010C9424010C94A70337
:100030000C9424010C9424010C9424010C942401AC
:100040000C94230F0C9424010C94160E0C94F00DB8
:100050000C9424010C9424010C9424010C9424018C
:100060000C94BB0F0C942401084AD73B3BCE016E85
:1000700084BCBFFDC12F3D6C74319ABD56833DDAFF
:100080003D00C77F11BED9E4BB4C3E916BAAAABE0E
:10009000000000803F0000407A10F35A00A0724E2A
:1000A00018090010A5D4E80000E87648170000E41D
:1000B0000B54020000CA9A3B000000E1F505000065
:1000C00080969800000040420F000000A0860100CA
:1000D0000000102700000000E8030000000064009A
:1000E000000000000A000000000001000000000005
:1000F0002C76D888DC674F0823DFC1DFAE59E1B129
:10010000B796E5E3E453C63AE651997696E8E6C237
:100110008426EB898C9B62ED407C6FFCEFBC9C9F3E
:1001200040F2BAA56FA5F490055A2AF75C936B6C60
:10013000F9676DC11BFCE0E40D47FEF520E6B50054
:10014000D0ED902E0300943577050080841E0800C2
:1001500000204E0A000000C80C333333330F986E72
:1001600012831141EF8D2114893BE65516CFFEE62F
:10017000DB18D1844B381BF77C1D901DA4BBE424F5
:10018000203284725E228100C9F124ECA1E53D2772
:100190000000000023002600290072740092740001
:1001A00048940078C40000000000240027002A00C2
:1001B00000000000250028002B00040404040404AF
:1001C0000404020202020202030303030303010206
:1001D00004081020408001020408102001020408D5
:1001E00010200000000800020100000304070000C6
:1001F000000000000000E12911241FBECFEFD8E06D
:10020000DEBFCDBF12E0A0E0B1E0ECEAF1E702C052
:1002100005900D92AE38B107D9F727E0AEE8B2E00D
:1002200001C01D92A136B207E1F710E0CCEFD0E09B
:1002300004C02197FE010E94EE33CB3FD107C9F7DE
:100240000E94CB140C94D4380C9400009FB7F894FF
:100250008091FD02882319F081508093FD028091E6
:10026000FD02811105C08CB58F7B8CBD1092FC0204
:100270009FBF08958CB58F778CBD08958CB580682D
:100280008CBD08956EBD00000DB407FEFDCF8EB588
:1002900008959CB5282F23709C7F922B9CBD2DB573
:1002A00082FB992790F9822F8E7F892B8DBD08952F
:1002B000FC01738362830895FC017783668308954C
:1002C000FC017583648308950895089580E008957E
:1002D000FC0181850895FC0180850895FC018781DA
:1002E0000895FC0186810895FC0140959585492378
:1002F000642B65870895FC0164870895FC0163877A
:100300000895FC0162870895FC0164830895FC014F
:100310006583089580E00895FC01228133812330B4
:100320003105D1F381E00895CF93DF93EC01E881AB
:10033000F9810280F381E02DCE0109958823B9F37C
:10034000DF91CF91089581E0089581E08093A70225
:100350000895CF93DF93FC01228133812230310550
:1003600069F0EC01668D848D0E94710E60E08B8DCA
:100370000E94710E82E090E09B838A83DF91CF918F
:1003800008950F931F93CF93DF93EC01162F0FB7B0
:10039000F89460E08A8D0E94710E888D998DDC0141
:1003A000ED91FC91612F6F770190F081E02D09951F
:1003B000888D998DDC01ED91FC910190F081E02D0B
:1003C00060E00995182F61E08A8D0E94710E0FBFC1
:1003D000812FDF91CF911F910F910895CF92DF92DE
:1003E000EF92FF920F931F93CF93DF93EC017B016A
:1003F0008A01E881F9810280F381E02D0995D82EE8
:10040000882339F1E114F104E1F001151105C9F077
:10041000CFB6F8942D8D30E023503109F80180815A
:1004200090E0821793071CF09D8D94509083F80103
:10043000408150E0BE016E5D7F4FC7010E94F035E4
:10044000CFBE8FB7F894FE01E35EFE4F10821D8E83
:100450008FBF8D2DDF91CF911F910F91FF90EF9066
:10046000DF90CF900895CF93DF93FC0126813781F1
:100470002115310549F02130310541F02230310597
:1004800039F02330310531F020E005C024E003C00D
:1004900028E001C02CE09CB5937F922B9CBD848109
:1004A0009581019709F04AC08CB580628CBD82812C
:1004B000938101978430910528F4FC01E25FFE4F9F
:1004C000C08101C0C1E08C2F0E944901DFB7F894C0
:1004D0008091FD02811127C0E4ECF1E09491E8EDF8
:1004E000F1E02491E92FF0E0EE0FFF1FEA55FE4FF7
:1004F000A591B491EC91E22321F461E08AE00E949D
:10050000710E61E08AE00E94A10E8CB580618CBD05
:100510008CB580648CBD61E08DE00E94A10E61E02D
:100520008BE00E94A10E8091FD028F5F8093FD02FF
:10053000DFBF8C2FDF91CF910C9449019CB59F7D3B
:100540009CBDB5CFCF93DF93EC01888D998DDC01F5
:10055000ED91FC910680F781E02D099561E08A8D8F
:100560000E94A10E61E08A8D0E94710E64E670E027
:1005700080E090E00E94DD0E81E0DF91CF91089550
:100580008F929F92AF92BF92CF92DF92EF92FF92A3
:10059000CF93DF93EC016B010E94170F4B015C01BD
:1005A000E12CF12C0E94170FDC01CB01881999096D
:1005B000AA09BB098C159D05AE05BF0530F48A81DB
:1005C0009B81039779F381E001C080E0DF91CF91B7
:1005D000FF90EF90DF90CF90BF90AF909F908F9063
:1005E00008958F929F92AF92BF92CF92DF92EF9237
:1005F000FF92CF93DF93EC016B010E94170F4B0129
:100600005C01E12CF12C0E94170FDC01CB01881951
:100610009909AA09BB098C159D05AE05BF0550F4C3
:10062000E881F9810280F381E02DCE0109958823CC
:1006300051F301C080E0DF91CF91FF90EF90DF9008
:10064000CF90BF90AF909F908F9008958F929F9280
:10065000AF92BF92CF92DF92EF92FF92CF93DF9350
:10066000FC0126893789232B11F481E038C0EC0185
:100670000E94170F6B017C0189E0882E912CA12C20
:10068000B12CE881F9810488F589E02DCE01099526
:10069000882359F30E94170FAB01BC014C195D0967
:1006A0006E097F098E899F89A0E0B0E084179507C5
:1006B000A607B70798F00E948D2BA50194010E9410
:1006C000AA2F9B01AC012F5F3F4F4F4F5F4FA4E616
:1006D000B0E00E94C92F0E94DD0ED3CF80E0DF91F1
:1006E000CF91FF90EF90DF90CF90BF90AF909F9011
:1006F0008F900895CF93DF938091FB02813041F476
:100700006091FA0288E296E0DF91CF910C94FD0BA4
:100710008230D1F4C7ECD3E083E0C73ED80731F094
:10072000699188E296E00E94FD0BF6CF60E088E2D6
:1007300096E00E94FD0B80E2E7ECF3E0DF011D9202
:100740008A95E9F71092FA02DF91CF9108951F92EE
:100750000F920FB60F921124CF92DF92EF92FF9279
:100760000F931F932F933F934F935F936F937F93B9
:100770008F939F93AF93BF93CF93DF93EF93FF93A9
:10078000C091FE02D091FF028A819B81049709F0FB
:10079000CAC02A8D30E0F901EE51FE4F8491F90173
:1007A000E253FE4F0491F901E654FE4F14911123D8
:1007B00079F081110E94480EE12FF0E0EE0FFF1F4B
:1007C000E057FE4FA591B491EC91E02381E009F44C
:1007D00080E081709D8D892719F09AA19F5F9AA36F
:1007E00099A1891771F09BA1903518F02DE130E0A7
:1007F00002C02BE030E09BA1290F311D2BA389A360
:1008000003C08BA18C5E8BA38BA1803A08F4DDC062
:100810008DA19EA1969587959EA38DA38AA18530D3
:1008200028F08DA19EA198609EA38DA38BA1805AD4
:100830008BA31AA28CA1882309F468C08FA18F5FB3
:100840008FA38C3008F4C1C08DA19EA1982F9F73F7
:10085000892F86958695887028E0280F821749F0A1
:10086000E82FF0E0EE5EFE4F3081931719F08F5FB6
:10087000F5CF80E020E1829FC00111242DA13EA18F
:1008800096E0369527959A95E1F7422F369527956C
:1008900036952795287038E0320F231749F0E22F5C
:1008A000F0E0EE5EFE4F5081451719F02F5FF5CF57
:1008B00020E0822BAE0144595F4FFA019081DE01A6
:1008C000A559BF4F9923B1F0FA01908121E0290F7A
:1008D00020839E01290F311DF90180A7FA01908123
:1008E0008C91981788F01CA281E08F8FCE010E9416
:1008F000A9010AC08C939C91973008F460C09C9128
:10090000943408F05CC0E0CF1FA25FC08DA19EA10F
:1009100088339B4009F059C081E08CA31FA2C459C1
:10092000DF4F188252C08A819B81039709F04DC026
:100930008E0101591F4FF801808191E0980F90833B
:10094000811137C07E01FDE6EF0EF11CF7018081B9
:10095000EF56FF4F9081891748F0CE010E94A90100
:100960008B899C8901969C8B8B8B23C0FE01E80FA1
:10097000F11DE059FF4F608170E06E01FEE6CF0E81
:10098000D11CF601808191E0980F908302C075958B
:1009900067958A95E2F7617077278B8D0E94710EBB
:1009A000F6018081863028F01082F70180818F5F08
:1009B0008083F8018081883040F0108206C01CA23C
:1009C0008F8598890196988B8F87FF91EF91DF91A2
:1009D000CF91BF91AF919F918F917F916F915F91D7
:1009E0004F913F912F911F910F91FF90EF90DF90CA
:1009F000CF900F900FBE0F901F901895EF92FF921F
:100A00000F931F93CF93DF931F92CDB7DEB77C0177
:100A1000162F0FB7F89460E0DC015A968C91498349
:100A20000E94710EF701808D918DDC01ED91FC919A
:100A3000612F60680190F081E02D0995182FF70172
:100A4000808D918DDC01ED91FC910190F081E02D84
:100A50004981642F099561E0F701828D0E94710E32
:100A60000FBF812F0F90DF91CF911F910F91FF90BA
:100A7000EF900895BF92CF92DF92EF92FF920F9383
:100A80001F93CF93DF934C3F10F0E12C6FC0142FD6
:100A9000072FF62EEC01E881F9810484F585E02D1D
:100AA0000995CE010E940D11E881F9810288F38930
:100AB000E02DCE010995E82E882339F340E06DE062
:100AC000CE010E94FE044A8560E0CE010E94FE0431
:100AD0004B8560E0CE010E94FE044C8560E0CE01B3
:100AE0000E94FE044D8560E0CE010E94FE04BFB668
:100AF000F89460E08A8D0E94710E888D998DDC01DA
:100B0000ED91FC910190F081E02D60E80995CF2CEA
:100B1000D02E012F015068F0888D998DF6016191DA
:100B20006F01DC01ED91FC910190F081E02D0995C0
:100B3000F1CF61E08A8D0E94710EBFBE44E0410F8B
:100B400062E2CE010E94FE048A819B81039771F0CC
:100B500043E061E0CE010E94FE0440E460E4CE0187
:100B60000E94FE0483E090E09B838A838E2DDF91B8
:100B7000CF911F910F91FF90EF90DF90CF90BF909A
:100B80000895CF93DF93FC01228133812330310517
:100B9000B9F0EC0182819381049771F045E061E046
:100BA000CF010E94FE0440E060E4CE010E94FE04FA
:100BB00084E090E09B838A83C35EDE4F888101C01E
:100BC00080E0DF91CF910895DF92EF92FF920F9333
:100BD0001F93CF93DF93EC0162E10E94C1012A8150
:100BE0003B812430310519F4982F907A41F42A8101
:100BF0003B8124303105A1F486FD20C011C08F85D2
:100C000098890196988B8F874FEF62E1CE01DF9133
:100C1000CF911F910F91FF90EF90DF900C94FE0405
:100C20002A813B812330310509F09AC083FF98C0A7
:100C30008B899C8901969C8B8B8B9CC063E1CE0138
:100C40000E94C101F82E60E1CE010E94C101482F2F
:100C50006DE0CE010E94FE04DFB6F89460E08A8D5C
:100C60000E94710E888D998DDC01ED91FC910190AF
:100C7000F081E02D60E009958E01025E1F4FEF2CA0
:100C8000E00EE01671F0888D998DDC01ED91FC91FC
:100C90000190F081E02D60E00995F80181938F01CA
:100CA000F0CF61E08A8D0E94710EDFBEFD8E4FEFA6
:100CB00062E1CE010E94FE0469E1CE010E94C10101
:100CC0008E01015E1E4F87FD8D5F85958595D8014C
:100CD0008C936AE1CE010E94C1018E87F801908158
:100CE0008E8597FF03C0890F8E8709C0F0E18F02C0
:100CF000C00111246FE070E00E9484326E87FE0113
:100D0000E25EFE4F8081882319F08E858D5902C0E6
:100D10008E85845A8E878D8DFE01E35EFE4F843072
:100D200090F08E8D8E838F8D8F8388A1888789A187
:100D300089878D8181110CC09E818C81981741F02B
:100D40008E818F3F29F08081882309F45DCF12C006
:100D500089899A8901969A8B898B81E08083F3CF68
:100D60002A813B812530310509F04ECF82FF4CCFDF
:100D700081708D8BCE010E940D1146CF80910503AD
:100D800090910603009711F00C94E405089580916A
:100D9000030390910403009711F00C94E405089567
:100DA0008091010390910203009711F00C94E405E7
:100DB0000895EF92FF920F931F93CF93DF9300D08C
:100DC0001F92CDB7DEB78C010E94A202E82E8111DE
:100DD00002C0E12C82C0F801838D823029F083307B
:100DE000C1F7FF24F39401C0F12C40E861E0C80191
:100DF0000E94FE046AE070E080E090E00E94DD0E58
:100E000061E0C8010E94C101803819F760E0F80173
:100E1000838D0E94A10EF801848D8F3F49F480914B
:100E200000038430B0F691E0980F90930003848F14
:100E3000F801948DE92FF0E0EE0FFF1FEF5FFC4FFC
:100E400011830083911103C060ED76E00AC09130F8
:100E500019F467EC76E005C0923009F0BACF6EEB7A
:100E600076E08F2D0E94B11440E06EE0C8010E9430
:100E7000FE0440E06FE0C8010E94FE04C8010E9429
:100E80000D1143E050E06AE971E0CE0101960E9445
:100E90009B2B49816DE1C8010E94FE044A816EE1ED
:100EA000C8010E94FE044B8166E2C8010E94FE0454
:100EB00040E060E2C8010E94FE0448E061E2C8012F
:100EC0000E94FE0440E050E069ED73E4C8010E9416
:100ED00021116DE0C8010E94E9108E2D0F900F9036
:100EE0000F90DF91CF911F910F91FF90EF90089598
:100EF000FF920F931F93CF93DF93CDB7DEB72C975D
:100F00000FB6F894DEBF0FBECDBF80E2E7ECF3E092
:100F1000DF011D928A95E9F788E0E6E9F2E0DF015A
:100F20001D928A95E9F764E772E0CE0101960E946E
:100F3000DB0D69E572E0CE0101960E94E60C40915E
:100F4000AB055091AC056091AD057091AE0522E006
:100F5000CE0107960E94520DBE01695F7F4FCE0100
:100F600001960E94F50CCE0107960E941D0D6FE2BE
:100F700072E0CE0101960E94E60C4091AF055091BF
:100F8000B0056091B1057091B20520E0CE010796E1
:100F90000E94520DBE01695F7F4FCE0101960E94F3
:100FA000F50CCE0107960E941D0D6DE272E0CE0198
:100FB00001960E94E60C60E672E0CE0101960E9466
:100FC000E60C0E94D81280FD03C090E3F92E02C007
:100FD00081E3F82E0E94D81281FD02C000E301C017
:100FE00001E30E94D81282FD02C010E301C011E3A8
:100FF0000E94D81283FD02C080E301C081E31F92EA
:10100000FF921F920F931F921F931F928F9387E659
:1010100092E09F938F9386E992E09F938F930E9433
:1010200033360FB6F894DEBF0FBECDBFCE010196AA
:101030000E94B41166E972E087EC93E00E94F935F2
:10104000CE0101960E941D0D2C960FB6F894DEBFBE
:101050000FBECDBFDF91CF911F910F91FF900895EB
:10106000FC01862F9091AA029923B9F1A091F70370
:10107000B091F80392E09C93A091F303B091F40334
:101080001C92A091F503B091F60390E19C9310920D
:10109000FF03A091FB03B091FC0396E09C93A09109
:1010A000F903B091FA039C9190619C93A091F9038C
:1010B000B091FA039C9198609C93A091F903B09130
:1010C000FA039C9190689C93A091F903B091FA0364
:1010D0009C919F7D9C931092AA029091A9029923C2
:1010E00091F04481558160817181882341F087EEC0
:1010F00093E00E94130A42E050E062E772E087EE5C
:1011000093E00C94130A0895FF920F931F93CF93CB
:10111000DF93CDB7DEB72E970FB6F894DEBF0FBEC4
:10112000CDBF1092A702909153038091540398175A
:1011300009F413C188E296E00E94B10B2091530399
:1011400090915403893401F52917C1F088E296E0A3
:101150000E94B10B182F909153038091540398175C
:1011600029F088E296E00E94B10BF5CF153231F4F8
:101170001092AB0281E08093A802EFC081E08093DF
:10118000AB021092A802E9C0803509F08DC010E0D2
:101190009091530380915403981759F088E296E098
:1011A0000E94B10BE12FF0E0EF55FD4F80831F5FF0
:1011B000EFCF65E772E0CE0101960E94DB0D60E0A3
:1011C000CE0101960E943008CE0101960E941D0DAD
:1011D0004AE06091A102CE0101960E94AE0D61E04D
:1011E000CE0101960E943008CE0101960E941D0D8D
:1011F00045E061EA72E084E396E00E943A0584E308
:1012000096E00E948C0185E0E1EAF2E0DF011D92A8
:101210008A95E9F707EC13E080E2F82EF8012F2D0C
:1012200011922A95E9F768EB7BE084E396E00E944F
:10123000F10210929E02882361F1F092A60246EA22
:1012400052E0B80184E396E00E94EE01882309F49D
:1012500084C061E080E10E94710E60E08EE00E9437
:10126000710EF80101900020E9F73197E75CF34037
:10127000E093A60281E08093FA0280914206082E54
:10128000000C990B9093A00280939F0260E080E194
:1012900008C086E09FEF9093A00280939F0261E0D8
:1012A0008EE00E94710E59C0813511F481E003C0B7
:1012B000823521F482E08093FB024FC0833509F030
:1012C0004CC0291721F088E296E00E94B10B809172
:1012D0009F029091A00288339F4F54F46AE772E016
:1012E00087EC93E00E940F3681E08093FA0235C0CC
:1012F00064E772E0CE0109960E94DB0D6FE772E0B1
:10130000CE0109960E94E60C4AE08E010F5F1F4F46
:10131000B80180919F029091A0020E94AF2BF8012A
:1013200001900020E9F73197AF01401B510BB80144
:10133000CE0109960E94B80C6FE672E0CE010996C4
:101340000E94E60CCE0109960E94B41181E08093C0
:10135000FA02CE0109960E941D0D909153038091CF
:101360005403981729F088E296E00E94B10BF5CF5C
:101370002E960FB6F894DEBF0FBECDBFDF91CF9192
:101380001F910F91FF900895CF93DF9300D000D06D
:1013900000D0CDB7DEB740E267EC73E084E396E0BF
:1013A0000E943A0584E396E00E948C0166E872E0B0
:1013B000CE0101960E94DB0D60E0CE0101960E94F5
:1013C0003008CE0101960E941D0D67EC73E0CE013E
:1013D00001960E94DB0D61E0CE0101960E9430086B
:1013E000CE0101960E941D0D64E772E0CE010196C8
:1013F0000E94DB0D61E0CE0101960E943008CE0113
:1014000001960E941D0D85E0E1EAF2E0DF011D92E8
:101410008A95E9F726960FB6F894DEBF0FBECDBFCA
:10142000DF91CF910895CF92DF92EF92FF920F93C9
:101430001F93CF93DF936C017A018B01C0E0D0E062
:10144000CE15DF0589F0D8016D918D01D601ED91A2
:10145000FC910190F081E02DC6010995892B11F4D2
:101460007E0102C02196ECCFC701DF91CF911F9181
:101470000F91FF90EF90DF90CF900895FC01538D76
:10148000448D252F30E0842F90E0821B930B54175E
:1014900010F0CF96089501970895FC01918D828DEB
:1014A000981761F0828DDF01A80FB11D5D968C91B8
:1014B000928D9F5F9F73928F90E008958FEF9FEFC3
:1014C0000895FC01918D828D981731F0828DE80F7F
:1014D000F11D858D90E008958FEF9FEF0895FC0139
:1014E000918D228D892F90E0805C9F4F821B910906
:1014F0008F739927089587EE93E00E946F0A21E089
:10150000892B09F420E0822F0895FC01848DDF01EE
:10151000A80FB11DA35ABF4F2C91848D90E0019666
:101520008F739927848FA689B7892C93A089B18955
:101530008C9180648C93938D848D981306C002885F
:10154000F389E02D80818F7D80830895EF92FF9253
:101550000F931F93CF93DF93EC0181E0888F9B8DD6
:101560008C8D981305C0E889F989808185FD24C098
:10157000F62E0B8D10E00F5F1F4F0F731127E02E1B
:101580008C8DE8120CC00FB607FCFACFE889F989F8
:10159000808185FFF5CFCE010E94850AF1CF8B8D2A
:1015A000FE01E80FF11DE35AFF4FF0820B8FEA892D
:1015B000FB898081806207C0EE89FF896083E889AA
:1015C000F98980818064808381E090E0DF91CF9110
:1015D0001F910F91FF90EF900895CF93DF93EC014F
:1015E000888D8823C9F0EA89FB89808185FD05C043
:1015F000A889B9898C9186FD0FC00FB607FCF5CF7D
:10160000808185FFF2CFA889B9898C9185FFEDCFC4
:10161000CE010E94850AE7CFDF91CF91089580E047
:1016200090E0892B29F00E947B0A81110C94000024
:1016300008953FB7F89480914F0390915003A09183
:101640005103B091520326B5A89B05C02F3F19F056
:101650000196A11DB11D3FBFBA2FA92F982F882732
:10166000820F911DA11DB11DBC01CD0142E0660F8D
:10167000771F881F991F4A95D1F70895089585ED22
:101680008093BC008091BC0084FDFCCF1092A3032A
:10169000089540912703262F30E0240F311D213279
:1016A0003105DCF42091A3032430C9F4FC0180E06F
:1016B00090E0861758F4309127032191DC01A95F4F
:1016C000BC4FA30FB11D2C930196F3CF809127033C
:1016D000680F6093270380E0089581E0089582E019
:1016E0000895E0919402F0919502309729F01092BC
:1016F000A5031092C60309940895AC01E0919202EB
:10170000F09193023097E1F090915403809153034C
:101710009817B0F090E0292F30E02617370754F4DF
:10172000DA01A20FB31F8C91D901AB5ABC4F8C9335
:101730009F5FF1CF1092540360935303CB01099440
:1017400008950895E091540380915303E81730F40D
:10175000F0E0EB5AFC4F808190E008958FEF9FEF0F
:1017600008959091540380915303981750F4E92FF2
:10177000F0E0EB5AFC4F208130E09F5F90935403E0
:1017800002C02FEF3FEFC90108958091530390E00D
:1017900020915403821B91090895CF92DF92EF921A
:1017A000FF920F931F93CF93DF937C01262F972FE8
:1017B0008A018091A403882391F0C62FD72F6E0150
:1017C000C40ED51ECC15DD0571F06991D701ED91E0
:1017D000FC910190F081E02DC7010995F3CF642FB2
:1017E000822F0E94490BC801DF91CF911F910F9169
:1017F000FF90EF90DF90CF900895CF93DF931F92EB
:10180000CDB7DEB769832091A4032223D1F02091C4
:10181000C603203240F021E030E0FC013383228314
:1018200080E090E015C08091A503E82FF0E0EA5534
:10183000FC4F998190838F5F8093A5038093C603AB
:1018400005C061E0CE0101960E94490B81E090E065
:101850000F90DF91CF910895089580E090E0089572
:101860008BEF08950E94EB350F931F93CF93DF9377
:10187000EC0188819981009729F02A813B81261704
:10188000370788F48B016F5F7F4F0E9421350097E7
:1018900061F0998388831B830A832C813D81232BEC
:1018A00011F4FC01108281E001C080E0DF91CF9152
:1018B0001F910F910895EF92FF920F931F93CF9373
:1018C000DF93EC017B018A01BA010E94340C28816C
:1018D000398181110DC02115310519F0C9010E940E
:1018E0008934198218821D821C821B821A8206C0CA
:1018F0001D830C83B701C9010E940F36CE01DF9111
:10190000CF911F910F91FF90EF900895CF93DF93A8
:10191000EC018A819B81059771F047E061E0CE017F
:101920000E94FE0440E860E4CE010E94FE0485E0CF
:1019300090E09B838A838A819B810597E1F38D895F
:10194000DF91CF910895CF93DF93FC012281338102
:101950002130310549F0EC0140E061E00E94FE04D5
:1019600081E090E09B838A8381E0DF91CF910895AD
:10197000EF92FF920F931F93CF93DF93FC0124818B
:1019800035816115710511F480E019C041155105CB
:10199000A9F07B01EC018A01020F131FB8010E941C
:1019A000340C882389F3288139818C819D81B7018A
:1019B000820F931F0E940F361D830C8381E0DF91FD
:1019C000CF911F910F91FF90EF90089561157105D0
:1019D00051F0FB0101900020E9F73197AF01461B60
:1019E000570B0C94B80C80E00895FB01448155819D
:1019F000608171810C94B80CCF93DF93EC01611579
:101A0000710559F0FB0101900020E9F73197AF0112
:101A1000461B570B0E945B0C0CC088819981009774
:101A200011F00E948934198218821D821C821B8247
:101A30001A82CE01DF91CF910895FC0180819181BE
:101A40000C948934EF92FF920F931F93CF93DF93FF
:101A5000CDB7DEB7A1970FB6F894DEBF0FBECDBFEE
:101A60007C01CB01BA01F70111821082138212822C
:101A70001582148242E0420F8E010F5F1F4F0E94B9
:101A80001F2BBC01C7010E94FC0CA1960FB6F89455
:101A9000DEBF0FBECDBFDF91CF911F910F91FF90A1
:101AA000EF900895EF92FF920F931F93CF93DF93E0
:101AB000CDB7DEB7A1970FB6F894DEBF0FBECDBF8E
:101AC0007C01CB01BA01F7011182108213821282CC
:101AD0001582148242E0420F8E010F5F1F4F0E9459
:101AE0001F2BBC01C7010E94FC0CA1960FB6F894F5
:101AF000DEBF0FBECDBFDF91CF911F910F91FF9041
:101B0000EF9008950F931F93CF93DF93CDB7DEB778
:101B100062970FB6F894DEBF0FBECDBF8C01CB012C
:101B2000F80111821082138212821582148250E011
:101B3000BE016F5F7F4F0E94A42BBE016F5F7F4F7E
:101B4000C8010E94FC0C62960FB6F894DEBF0FBE6F
:101B5000CDBFDF91CF911F910F9108950F931F93E8
:101B6000CF93DF93CDB7DEB729970FB6F894DEBFDA
:101B70000FBECDBF8C01862FF80111821082138217
:101B800012821582148250E0BE016F5F7F4F90E099
:101B90000E94EB2BBE016F5F7F4FC8010E94FC0CBF
:101BA00029960FB6F894DEBF0FBECDBFDF91CF915F
:101BB0001F910F910895FC011182108213821282ED
:101BC000158214826115710551F0FB01019000200E
:101BD000E9F73197AF01461B570B0C945B0C089546
:101BE0001F920F920FB60F9211242F933F934F9392
:101BF0005F936F937F938F939F93AF93BF93EF9375
:101C0000FF9387EE93E00E94850AFF91EF91BF91C9
:101C1000AF919F918F917F916F915F914F913F9184
:101C20002F910F900FBE0F901F9018951F920F923B
:101C30000FB60F9211242F938F939F93EF93FF93DF
:101C4000E091F703F091F8038081E091FD03F091BA
:101C5000FE0382FD12C09081809100048F5F8F731C
:101C600020910104821751F0E0910004F0E0E95165
:101C7000FC4F958F8093000401C08081FF91EF910C
:101C80009F918F912F910F900FBE0F901F901895DD
:101C9000833081F028F4813099F08230A1F00895EA
:101CA0008730A9F08830B9F08430D1F48091800079
:101CB0008F7D03C0809180008F778093800008958E
:101CC00084B58F7702C084B58F7D84BD08958091DF
:101CD000B0008F7703C08091B0008F7D8093B000FB
:101CE00008951F93CF93DF93282F30E0F901EE5131
:101CF000FE4F8491F901E253FE4FD491F901E6546D
:101D0000FE4FC491CC23C9F0162F81110E94480EBA
:101D1000EC2FF0E0EE0FFF1FE055FE4FA591B491C0
:101D20008FB7F894111105C09C91ED2FE095E92330
:101D300002C0EC91ED2BEC938FBFDF91CF911F91FF
:101D40000895CF93DF9390E0FC01E253FE4F24917E
:101D5000FC01E654FE4F8491882361F190E0880FE6
:101D6000991FFC01EA55FE4FC591D491FC01E05545
:101D7000FE4FA591B491611109C09FB7F894888175
:101D8000209582238883EC912E230BC0623061F46E
:101D90009FB7F8943881822F809583238883EC91B4
:101DA0002E2B2C939FBF06C08FB7F894E8812E2B63
:101DB00028838FBFDF91CF9108958F929F92AF922A
:101DC000BF92CF92DF92EF92FF926B017C010E9453
:101DD000190B4B015C01C114D104E104F104F1F0D1
:101DE0000E94190BDC01CB0188199909AA09BB09CA
:101DF000883E9340A105B10570F321E0C21AD108D5
:101E0000E108F10888EE880E83E0981EA11CB11C41
:101E1000C114D104E104F10419F7DDCFFF90EF9074
:101E2000DF90CF90BF90AF909F908F9008952FB785
:101E3000F89460914B0370914C0380914D03909105
:101E40004E032FBF08951F920F920FB60F921124C9
:101E50002F933F938F939F93AF93BF9380914B03A7
:101E600090914C03A0914D03B0914E0330914A03E1
:101E700023E0230F2D3720F40196A11DB11D05C0CD
:101E800026E8230F0296A11DB11D20934A038093DB
:101E90004B0390934C03A0934D03B0934E0380915A
:101EA0004F0390915003A0915103B09152030196BA
:101EB000A11DB11D80934F0390935003A093510334
:101EC000B0935203BF91AF919F918F913F912F910A
:101ED0000F900FBE0F901F9018951F920F920FB684
:101EE0000F9211242F933F934F935F936F937F93A0
:101EF0008F939F93AF93BF93EF93FF93E091020172
:101F0000F09103010995FF91EF91BF91AF919F91DE
:101F10008F917F916F915F914F913F912F910F9092
:101F20000FBE0F901F9018951F920F920FB60F9231
:101F300011242F933F934F935F936F937F938F93CE
:101F40009F93AF93BF93EF93FF93E0910001F091C4
:101F500001010995FF91EF91BF91AF919F918F91F1
:101F60007F916F915F914F913F912F910F900FBE95
:101F70000F901F9018951F920F920FB60F92112479
:101F80002F933F934F935F936F937F938F939F9381
:101F9000AF93BF93EF93FF938091B900887F803612
:101FA00009F49CC068F5883209F45BC090F4803174
:101FB00009F454C038F4882309F4F6C0883009F4D1
:101FC0004DC0F6C0883109F44CC0803209F45DC0C0
:101FD000EFC0803409F468C048F4803309F455C078
:101FE000883309F0E5C08093A103D8C0803509F497
:101FF0004FC0883509F45DC0883409F0D9C0D6C017
:10200000883909F4C7C0A8F4883709F467C038F4E0
:10201000883609F463C0803709F460C0C9C08838C5
:1020200009F4B8C0803909F45FC0803809F0C0C035
:102030005BC0803B09F486C038F4803A09F466C07E
:10204000883A09F47FC0B4C0803C09F4A7C0883C3A
:1020500009F4A4C0883B09F48AC0AAC080917E0319
:1020600010C09091A00380919F03981770F5E091A4
:10207000A00381E08E0F8093A003F0E0E158FC4FB5
:1020800080818093BB0085EC86C08093A1038EC0C5
:10209000E091A00381E08E0F8093A0038091BB00AC
:1020A000F0E0E158FC4F80839091A00380919F0362
:1020B0006EC0E091A00381E08E0F8093A003809119
:1020C000BB00F0E0E158FC4F80838091A2038111B6
:1020D0006DC081E080937D0384EA61C083E08093DA
:1020E000A30310924903CFCF80914903803208F0B7
:1020F00051C0E091490381E08E0F809349038091A4
:10210000BB00F0E0E75DFC4F8083BDCF85EC8093A2
:10211000BC001092A30380914903803230F4E09117
:102120004903F0E0E75DFC4F10826091490370E0E5
:10213000E0918E02F0918F0289E293E0099510926E
:10214000490336C084E08093A303109228031092C1
:102150002703E0919002F091910209958091270365
:10216000811105C081E08093270310920703E0915D
:10217000280381E08E0F80932803F0E0E95FFC4F95
:1021800080818093BB00909128038091270398174A
:1021900008F479CF85E88093BC000AC085EC809371
:1021A000BC001092A30304C01092A1030E943F0B35
:1021B000FF91EF91BF91AF919F918F917F916F911F
:1021C0005F914F913F912F910F900FBE0F901F90F5
:1021D00018950F931F93CF938C01C62F68312CF461
:1021E00065305CF0653114F409C0C7E147E06DE487
:1021F000C8010E94FE04C35006C0C5E044E06DE47F
:10220000C8010E94FE044BEF4C0F406869E0C80112
:10221000CF911F910F910C94FE04CF93DF93FC019B
:10222000228133812230310549F0EC0141E061E047
:102230000E94FE0482E090E09B838A83DF91CF912D
:1022400008958F929F92AF92BF92CF92DF92EF92BA
:10225000FF921F93CF93DF93EC014A015B0120E0D3
:1022600034E244E759E4C501B4010E94EC2E20E0B9
:1022700034E244E752E40E94E0300E9459316B019D
:102280007C01A7016627772766E0CE010E94FE0445
:1022900077276F2D5E2D4D2D67E0CE010E94FE0445
:1022A0004C2D68E0CE010E94FE04C25EDE4F11E0BC
:1022B00020E030EC42E454E4C501B4010E94033252
:1022C00087FD10E0188381E0DF91CF911F91FF908F
:1022D000EF90DF90CF90BF90AF909F908F90089538
:1022E0009091A3039111FCCF91E09093A30390935D
:1022F000A2032FEF2093A1031092A003260F209397
:102300009F0390937E0390917E03880F892B809387
:102310007E0380917D03813061F410927D03809172
:102320007E038093BB008091BC0083FDF8CF85ECD9
:1023300001C085EE8093BC008091A3038130E1F35E
:102340008091A003861710F46091A003AFE7B3E07B
:1023500025E533E0F9018E2F821B861718F48D9145
:102360008193F9CF862F0895CF93DF93FC01C48129
:10237000D581209719F41092C70310C0CF31D10531
:1023800010F0CFE1D0E0FC0160817181AE0187ECFB
:1023900093E00E942436C953DC4F1882DF91CF911D
:1023A0000895382F2091C60390915407213208F0E8
:1023B00049C08091A3038111FCCF42E04093A30365
:1023C0003093A2033FEF3093A1031092A003209318
:1023D0009F03A6EAB3E04FE753E0FA013E2F341B18
:1023E000321718F43D913193F9CF10927E0320916A
:1023F0007E03990F922B90937E0390917D039130F1
:1024000061F410927D0390917E039093BB009091B4
:10241000BC0093FDF8CF95EC01C095EE9093BC0005
:102420009091A3039230E1F39091A1039F3F79F043
:102430008091A103803241F08091A103803331F07B
:1024400084E005C081E003C082E001C083E0109217
:10245000A5031092C6031092A403089581E00C9482
:10246000D11191E09093A403809354071092A50397
:102470001092C60308951F93CF93DF931F92CDB799
:10248000DEB7682F80E169830E943112698188E29A
:1024900096E00E94FD0B80E00E94D11162E080E195
:1024A0000E9470111092540380935303882351F0BB
:1024B00088E296E00E94B10B182F88E296E00E9415
:1024C000B10B02C080E010E0212F30E0A901582BB1
:1024D000CA010F90DF91CF911F910895CF93DF93A1
:1024E00000D0CDB7DEB74A8369830E94311269817B
:1024F00088E296E00E94FD0B4A81642F88E296E014
:102500000E94FD0B0F900F90DF91CF910C942E1233
:10251000613208F060E20E947011109254038093BF
:10252000530308951F93CF93DF931F92CDB7DEB768
:10253000182F69830E943112698188E296E00E9417
:10254000FD0B0E942E1261E0812F0E948812909153
:10255000530380915403981729F088E296E00E9473
:10256000B10B01C080E00F90DF91CF911F910895D2
:10257000CF93DF93C82FD62F61E081E40E9492129F
:10258000DD2319F0482F4C2B0BC021E030E0082E42
:1025900001C0220F0A94EAF72C2B2095422F4823E2
:1025A0004093A20561E081E4DF91CF910C946E121B
:1025B00061E081E40E9492128093A20508954F92F7
:1025C0005F926F927F928F929F92AF92BF92CF92C3
:1025D000DF92EF92FF920F931F93CF93DF93CDB7CC
:1025E000DEB728970FB6F894DEBF0FBECDBF65E803
:1025F00089E20E9492120FEB15E0F80183A364E8D0
:1026000089E20E949212F80182A393A1682F70E0E0
:10261000792B80E090E00E948B2E20E030E040E8B3
:1026200050E40E94EC2EF801668F778F80A391A36F
:1026300087E00E943B12F801958B848B89E00E9411
:102640003B12F801978B868B8AE00E943B12F801BF
:10265000918F808F8BE00E943B127C01F801938F59
:10266000828F6689778980E090E00E948B2E698353
:102670007A838B839C83F801608D718D80E090E07C
:102680000E948B2E4B015C01B70180E090E00E941C
:102690008B2E6B017C01F8016489758980E090E0E4
:1026A0000E948B2E6D837E838F83988728EB3EE17B
:1026B00045E550E4C501B4010E94EC2E2B013C011C
:1026C00020E030E040E250E4C701B6010E94EC2E69
:1026D0009B01AC01C301B2010E9444309B01AC01DB
:1026E0006D817E818F8198850E9444302B013C0151
:1026F000F801608771878287938721E73DE34AE687
:1027000050E4C501B4010E94EC2E4B015C0120E0B5
:1027100030E040E350E4C701B6010E94EC2E9B017B
:10272000AC01C501B4010E9444309B01AC01698138
:102730007A818B819C810E9444306B017C01F8017D
:10274000648775878687978721E931E340E95AE3F3
:10275000C301B2010E94EC2E4B015C012AE037ED6F
:1027600043EA5AE3C701B6010E94EC2E9B01AC017B
:10277000C501B4010E94453020E030E040E05FE355
:102780000E94EC2EF801608B718B828B938B2896C4
:102790000FB6F894DEBF0FBECDBFDF91CF911F9172
:1027A0000F91FF90EF90DF90CF90BF90AF909F90F0
:1027B0008F907F906F905F904F9008951F93CF936D
:1027C000DF931F92CDB7DEB7682F86E769830E943B
:1027D0003112698188E296E00E94FD0B80E00E9440
:1027E000D11162E086E70E94881290915303809194
:1027F0005403981779F088E296E00E94B10B182FE5
:1028000088E296E00E94B10B20E030E0312F822B6D
:10281000932B02C080E090E00F90DF91CF911F9149
:1028200008950E94DE139827892798270895CF934B
:1028300062E086E30E9488129091530380915403D2
:10284000981779F088E296E00E94B10BC82F88E2D1
:1028500096E00E94B10B20E030E03C2F822B932BBE
:1028600002C080E090E0CF910895CF92DF92EF9286
:10287000FF920F931F93CF93DF93062FEC0110E08D
:1028800060E070E0CB01E991EE2311F1EE32F1F05E
:1028900020ED2E0F2A30E0F4AAE0B0E09B01AC015D
:1028A0000E94C92F0E2E000CFF0BAF01405351099F
:1028B0006A01550FEE08FF086C0D7D1D8E1D9F1DD2
:1028C000112309F31F5F0117F0F602C011E0DBCFFF
:1028D000DF91CF911F910F91FF90EF90DF90CF90FC
:1028E000089580335CF08A3314F480530895813462
:1028F0002CF0873414F487530895089580E00895E8
:10290000CF92DF92EF92FF921F93CF93DF93162F18
:10291000EC0160E070E0CB01E99120ED2E0F2A3050
:10292000C0F41123B1F0AAE0B0E09B01AC010E9419
:10293000C92F0E2E000CFF0BAF01405351096A0145
:10294000550FEE08FF086C0D7D1D8E1D9F1D11504B
:10295000E3CFDF91CF911F91FF90EF90DF90CF9069
:1029600008958230B8F4E82FF0E0EE0FFF1FE0503A
:10297000FF4F71836083813039F0809169008360FB
:1029800080936900E89A0895809169008C60809333
:102990006900E99A0895CF93DF93CDB7DEB7C155AB
:1029A000D1090FB6F894DEBF0FBECDBF789484B5C1
:1029B000826084BD84B5816084BD85B5826085BD3B
:1029C00085B5816085BD80916E00816080936E00C9
:1029D00010928100809181008260809381008091BB
:1029E000810081608093810080918000816080936C
:1029F00080008091B10084608093B1008091B0002C
:102A000081608093B00080917A00846080937A0026
:102A100080917A00826080937A0080917A00816050
:102A200080937A0080917A00806880937A00109277
:102A3000C1001092AA021092A90261E08EE00E94E9
:102A4000A10E61E08FE00E94A10E61E080E10E9492
:102A5000A10E88EF8093BA0081E79BE090939102EA
:102A6000809390028DE79BE090938F0280938E027B
:102A700010925403109253031092A5031092C603B0
:102A80001092A30381E08093A20310927D0361E082
:102A900082E10E94710E61E083E10E94710E8091DB
:102AA000B9008E7F8093B9008091B9008D7F8093AB
:102AB000B90088E48093B80085E48093BC0085EA7F
:102AC00091E090939302809392028AE793E090932F
:102AD0009502809394020FB6F894A89580916000B7
:102AE000886180936000109260000FBE99E288E1D7
:102AF0000FB6F894A895809360000FBE9093600085
:102B00000E94170F6093F6027093F7028093F80209
:102B10009093F90261E08EE00E94710E11E08091C5
:102B2000A702813011F40E9484080E94170FC09000
:102B3000F602D090F702E090F802F090F902DC0182
:102B4000CB018C199D09AE09BF0981319742A105BE
:102B5000B10530F01093AB0260E08EE00E94710E80
:102B60008091AB02882311F40C94EA2811E01093B1
:102B7000AA021093A90284E396E00E94D90681116B
:102B800024C06AE871E0CE0101960E94DB0D61E08D
:102B9000CE0101960E943008CE0101960E941D0DC3
:102BA00061E08EE00E94710E64E670E080E090E0EB
:102BB0000E94DD0E60E08EE00E94710E64E670E01F
:102BC00080E090E00E94DD0EEBCF40E050EC64E648
:102BD00074E484E396E00E94211167E184E396E0C7
:102BE0000E94E91082E08093380680933F0610939C
:102BF0003E0666EA71E0CE0101960E94DB0D61E0BF
:102C0000CE0101960E943008CE0101960E941D0D52
:102C100068EB71E0CE0101960E94DB0D60E0CE0111
:102C200001960E943008CE0101960E941D0D40E1E0
:102C300062E070E0CE0101960E94820D61E0CE015B
:102C400001960E943008CE0101960E941D0D88E871
:102C50000E9411149093EC058093EB058AE80E9482
:102C600011149093EE058093ED058CE80E941114E9
:102C70009093F0058093EF058EE80E9411149093D5
:102C8000F2058093F10580E90E9411149093F405F8
:102C90008093F30582E90E9411149093F6058093C6
:102CA000F50584E90E9411149093F8058093F705C7
:102CB00086E90E9411149093FA058093F90588E93A
:102CC0000E9411149093FC058093FB058AE90E94F1
:102CD00011149093FE058093FD058CE90E94111458
:102CE000909300068093FF058EE90E941114909343
:102CF00002068093010661EA86E70E9492128093A1
:102D0000030681EE0E941114909305068093040639
:102D100063EE86E70E9492128093060664EE86E7D1
:102D20000E949212182F65EE86E70E949212282FB9
:102D30002F7030E1139FC0011124822B909308065D
:102D40008093070666EE86E70E949212182F65EEC2
:102D500086E70E94921290E0E4E095958795EA95C7
:102D6000E1F740E1149F90011124822B932B909363
:102D70000A068093090667EE86E70E949212809306
:102D80000B0641E062EF86E70E946E124FE364EFAC
:102D900086E70E946E1280E10E94311260E088E2B4
:102DA00096E00E94FD0B60E188E296E00E94FD0B38
:102DB00060E088E296E00E94FD0B0E942E1243E044
:102DC00060E889E20E946E1242E061E889E20E94B6
:102DD0006E120E94DF1241E061E081E40E946E12F7
:102DE00040E063E081E40E946E1280E49AEDAFE778
:102DF000B8E38093580590935905A0935A05B09372
:102E00005B0589E29CE5AFE0BCE380935C059093B1
:102E10005D05A0935E05B0935F0587EF9CECA2E192
:102E2000B9E38093600590936105A0936205B09328
:102E300063058AE6809364058CE1809365056FE005
:102E40008AE60E949212182F6FE0809165050E9419
:102E50009212212F30E0322F2227282B2D33384693
:102E600009F06CC040914F0580914D05482B60E200
:102E7000809165050E946E1240914C0561E280913F
:102E800065050E946E124091520562E280916505CF
:102E90000E946E124091500563E2809165050E9488
:102EA0006E124091530580915405482B64E2809145
:102EB00065050E946E1240913E0580913D05482BAC
:102EC00080913F05482B60E1809164050E946E125D
:102ED00040E061E1809164050E946E1240E062E191
:102EE000809164050E946E124091430580914405D3
:102EF000482B6EE1809164050E946E1240E063E110
:102F0000809164050E946E1240914A056FE18091A4
:102F100064050E946E124091470580914805482B38
:102F200080914605482B60E2809164050E946E12F4
:102F300040E061E2809164050E946E120E94170FCA
:102F400060E08EE00E94710E61E080E10E94710EEF
:102F500069EC71E0CE0101960E94DB0D61E0CE01CB
:102F600001960E943008CE0101960E941D0DCE01EF
:102F700001961C010E94170F0091F2021091F302BA
:102F80002091F4023091F5020E5C1F4F2F4F3F4FFE
:102F9000061717072807390758F4A8950E94170F36
:102FA0006093F2027093F3028093F4029093F5021F
:102FB0000E94170F0091EA021091EB022091EC029F
:102FC0003091ED020F5F1F4F2F4F3F4F061717072E
:102FD0002807390708F000C30E94170F00918C04DE
:102FE00010918D0420918E0430918F04DC01CB016F
:102FF000801B910BA20BB30B85369105A105B10582
:1030000008F4E0C282E40E9431126DEF88E296E09B
:103010000E94FD0B80E00E94D11162E082E40E94D8
:10302000881288E296E00E94B10B182F88E296E0A1
:103030000E94B10B2D961FAF2D972C961FAE2C978B
:103040002D96CEACDFAC2D97C82AD92AC114D10455
:1030500059F40E94170F60938C0470938D04809331
:103060008E0490938F04AEC282E40E9431126FEFFF
:1030700088E296E00E94FD0B0E942E1200E010E014
:103080000C151D0534F761E082E40E9488129091CE
:103090005303809154039817A1F088E296E00E94B0
:1030A000B10B843279F4A1E0B0E0B0939C04A0931A
:1030B0009B0480939D041092990481E080939A046C
:1030C0007EC280E020919B0430919C048D3009F0F9
:1030D00056C2C901019690939C0480939B04F90108
:1030E000EC57FB4F7F01118E46E050E064ED71E03C
:1030F0008DE994E00E941636892B09F07DC1D70135
:1031000056968C9156978A3209F059C257968C91EF
:103110000E947114B82EF701808D0E947114F0E1A5
:10312000BF9E800D112490919904981348C281E0AC
:10313000809395046CE270E08DE994E00E9404367F
:1031400001967C0162E00E9435146093150570932E
:10315000160580931705909318056CE270E0C7017F
:103160000E9404365C017C012FEFE21AF20A64E04F
:10317000C7010E943514DC01CB010196A11DB11DD0
:103180008093190590931A05A0931B05B0931C0515
:1031900062E0C7010E9480149B01AC0164E0C5019C
:1031A00003962F962FAF2F9760963FAF609761964B
:1031B0004FAF619762965FAF62970E9435144B01E3
:1031C0005C012F962FAD2F9760963FAD609761966B
:1031D0004FAD619762965FAD629760E876E988E9E6
:1031E00090E00E9474322B013C01A2E3B0E0A50103
:1031F00094010E94C92F23E030E040E050E00E949B
:10320000AA2F420E531E641E751E4092190550923D
:103210001A0560921B0570921C056CE270E0C701F4
:103220000E940436FC0101962181233581F47094BB
:10323000609450944094411C511C611C711C40923C
:10324000190550921A0560921B0570921C056CE2DC
:1032500070E00E9404365C017C013FEFE31AF30A40
:1032600064E0C7010E943514DC01CB010196A11D69
:10327000B11D80931D0590931E05A0931F05B0936B
:10328000200563E0C7010E9480149B01AC0164E04B
:10329000C50104962F962FAF2F9760963FAF60978A
:1032A00061964FAF619762965FAF62970E94351447
:1032B0004B015C012F962FAD2F9760963FAD609725
:1032C00061964FAD619762965FAD629760E876E96F
:1032D00088E990E00E9474322B013C01A2E3B0E047
:1032E000A50194010E94C92F23E030E040E050E0A6
:1032F0000E94AA2F420E531E641E751E40921D0589
:1033000050921E0560921F05709220056CE270E0DD
:10331000C7010E940436FC0101962181273581F402
:103320007094609450944094411C511C611C711C19
:1033300040921D0550921E0560921F057092200557
:103340006CE270E00E94043601967C0161E00E940C
:103350008014962E609397046CE270E0C7010E947F
:10336000043601967C0162E00E9480145B01709338
:10337000300560932F056CE270E0C7010E940436AF
:1033800001963C0161E00E9435147B017093260593
:10339000609325056CE270E0C3010E94043661E091
:1033A00001960E9435142AE030E040E050E00E948F
:1033B000AA2F209321053093220540932305509393
:1033C0002405911003C010929804F9C045E0A4169A
:1033D000B10410F481E00BC05FE1E516F10410F0D8
:1033E00082E005C08AE1E816F10420F083E08093D2
:1033F0009804E5C084E0FBCF46E050E06BED71E05F
:103400008DE994E00E941636892B09F05AC0D70145
:1034100056968C9156978A3209F0D1C057968C9166
:103420000E947114B82EF701808D0E947114F0E192
:10343000BF9E800D1124909199049813C0C06CE236
:1034400070E08DE994E00E94043601967C0162E010
:103450000E94351470932A05609329056CE270E090
:10346000C7010E9404366CE270E001960E940436A7
:103470006CE270E001960E9404366CE270E0019606
:103480000E9404366CE270E001960E9404366CE201
:1034900070E001960E94043662E001960E943514A5
:1034A0009B01AC01AAE0B0E00E94C92F24E230E009
:1034B00040E050E00E94AA2F309328052093270572
:1034C0007EC046E050E062EE71E08DE994E00E943B
:1034D0001636892B09F056C0D70156968C9156970F
:1034E0008A3209F06CC057968C910E947114B82EE4
:1034F000F701808D0E947114F0E1BF9E800D1124B0
:103500009091990498135BC06CE270E08DE994E0AF
:103510000E9404366CE270E001960E9404366CE270
:1035200070E001960E9404366CE270E001960E9401
:1035300004366CE270E001960E9404366CE270E0A2
:1035400001960E9404366CE270E001960E940436F7
:103550006CE270E001960E9404366CE270E0019625
:103560000E94043661E001960E94351460932B0599
:1035700070932C0580932D0590932E0520C027373E
:1035800031052CF010929C0410929B0418C08A32D2
:1035900011F410929A04A9014F5F5F4F50939C045D
:1035A00040939B04F901EC57FB4F818F90919A0453
:1035B000992329F0909199048927809399040F5FAA
:1035C0001F4F5ECD0E94170F6093EA027093EB02CB
:1035D0008093EC029093ED020E94170F0091E60297
:1035E0001091E7022091E8023091E9020C591F4F37
:1035F0002F4F3F4F061717072807390708F04BC60C
:1036000068EB7BE084E396E00E94F102882309F4F2
:1036100034C685E08093A60246EA52E061EA72E091
:1036200084E396E00E94EE01882309F42AC661E053
:103630008FE00E94710E60E08EE00E94710E80911A
:103640004206082E000C990B9093A00280939F02D3
:10365000FF24F394F0929E0269EE71E0C1010E9492
:10366000DB0D60E0C1010E943008C1010E941D0D08
:103670004AE06091A102C1010E94AE0D61E0C1016A
:103680000E943008C1010E941D0D1091A2021093EA
:10369000D4020091A3020093D5028091A10285304B
:1036A00009F46AC208F074C0823009F4A6C008F0B8
:1036B00068C0813009F0D6C580E2E7ECF3E0DF01B5
:1036C0001D928A95E9F764E772E0CE0183960E9425
:1036D000DB0D68EF71E0CE0183960E94E60C20912D
:1036E0000C0630910D0640910E0650910F06609128
:1036F00010067091110680911206909113060E9497
:103700004530AB01BC014093100650931106609305
:1037100012067093130622E0C1010E94520DB101FE
:10372000CE0183960E94F50CC1010E941D0D6FE22F
:1037300072E0CE0183960E94E60C409114065091EF
:103740001506609116067091170620E0C1010E94CF
:10375000520DB101CE0183960E94F50CC1010E9469
:103760001D0D6FE272E0CE0183960E94E60C40913F
:1037700018065091190660911A0670911B0620E0F8
:1037800048C1833009F449C1843009F451C56AC580
:10379000883009F4AEC338F4863009F45EC287304D
:1037A00009F4BCC25FC5893009F470C48F3F09F0C9
:1037B00059C580E2E7ECF3E0DF011D928A95E9F755
:1037C00088E0E6E9F2E0DF011D928A95E9F764E717
:1037D00072E0CE0183960E94DB0D64E472E0CE01BC
:1037E00083960E94E60C60914206062E000C770B31
:1037F0004AE0C1010E94820D1EC580E2E7ECF3E0C1
:10380000DF011D928A95E9F764E772E0CE018396A5
:103810000E94DB0D6FEF71E0CE0183960E94E60CF3
:1038200060916A0570916B0580916C0590916D05B2
:10383000C0908205D0908305E0908405F0908505C6
:103840009B01AC010E94EC2E4B015C01A70196018B
:10385000C701B6010E94EC2E9B01AC01C501B40169
:103860000E9445300E9416329B01AC0160917605A2
:103870007091770580917805909179050E94E030EC
:103880000E94B13020E030E044E353E40E94EC2E8B
:103890002BED3FE049E450E40E94E030AB01BC0175
:1038A00040938A0550938B0560938C0570938D052A
:1038B00022E0C1010E94520DB101CE0183960E9407
:1038C000F50CC1010E941D0D6FE272E0CE018396DE
:1038D0000E94E60C609176057091770580917805DD
:1038E00090917905C0908205D0908305E090840581
:1038F000F09085059B01AC010E94EC2E4B015C0110
:10390000A7019601C701B6010E94EC2E9B01AC01F4
:10391000C501B4010E9445300E9416329B01AC01E2
:1039200060916A0570916B0580916C0590916D05B1
:103930000E94E0300E94B13020E030E044E353E4E4
:103940000E94EC2E2BED3FE049E450E40E94E03071
:10395000AB01BC0140938E0550938F056093900599
:103960007093910522E0C1010E94520DB101CE0178
:1039700083960E94F50CC1010E941D0D6FE272E05A
:10398000CE0183960E94E60C60916A0570916B05EA
:1039900080916C0590916D058090760590907705EB
:1039A000A0907805B0907905C0908205D0908305ED
:1039B000E0908405F09085059B01AC010E94EC2EFF
:1039C0002B013C01A5019401C501B4010E94EC2E1C
:1039D0009B01AC01C301B2010E9445304B015C0167
:1039E000A7019601C701B6010E94EC2E9B01AC0114
:1039F000C501B4010E9445300E941632AB01BC01E2
:103A00004093960550939705609398057093990598
:103A100022E0C1010E94520D0EC480E2E7ECF3E007
:103A2000DF011D928A95E9F764E772E0CE01839683
:103A30000E94DB0D66E072E0CE0183960E94E60CE8
:103A40004091C7055091C8056091C9057091CA059C
:103A500020E0C1010E94520DB101CE0183960E9467
:103A6000F50CC1010E941D0D6FE272E0CE0183963C
:103A70000E94E60C4091CB055091CC056091CD059C
:103A80007091CE0520E0C1010E94520DB101CE011E
:103A900083960E94F50CC1010E941D0D6FE272E039
:103AA000CE0183960E94E60C4091CF055091D0053F
:103AB0006091D1057091D20521E0C1010E94520DA3
:103AC000B101CE0183960E94F50CC1010E941D0D2B
:103AD0006FE272E0CE0183960E94E60CC090DD0595
:103AE000D090DE05E090DF05F090E00520E038EDB5
:103AF00046E558E4C701B6010E94033218166CF47B
:103B000080E090E0A0E4B0E48093DD059093DE05D2
:103B1000A093DF05B093E0050AC020E030E040E468
:103B200050E4C701B6010E94862E87FDE9CF40917F
:103B3000DD055091DE056091DF057091E00520E024
:103B4000C1010E94520DB101CE0183960E94F50C75
:103B5000C1010E941D0D6FE672E0CE0183960E94A6
:103B6000E60CCE0183960E94B41166E972E087EC00
:103B700093E00E94F93571C380E2E7ECF3E0DF01E6
:103B80001D928A95E9F76DE072E0CE0183960E945E
:103B9000DB0D609125057091260580E090E00E9484
:103BA0008B2E20E030E040E251E40E94E03020E043
:103BB00030E040EA50E40E94862E87FFACC060915E
:103BC0002B0570912C0580912D0590912E052AE0F2
:103BD000A1010E94BA2BF10101900020E9F7319771
:103BE000AF0142195309B101CE0183960E94B80C6E
:103BF0006FE272E0CE0183960E94E60C609115059B
:103C00007091160580911705909118050E948D2ED0
:103C10002AE037ED43E25CE30E94EC2EAB01BC01ED
:103C200020E0C1010E94220DB101CE0183960E94C5
:103C3000F50CC1010E941D0D80911505909116058E
:103C4000A0911705B09118058093B4029093B50226
:103C5000A093B602B093B702F6C280E2E7ECF3E0BD
:103C6000DF011D928A95E9F768E172E0CE01839643
:103C70000E94DB0D609125057091260580E090E0A3
:103C80000E948B2E20E030E040E251E40E94E030C0
:103C900020E030E040EA50E40E94862E87FF3BC0DF
:103CA0006091190570911A0580911B0590911C0572
:103CB0000E948D2E25E93FEB46ED53E30E94EC2E4A
:103CC000AB01BC0125E0C1010E94220DB101CE0172
:103CD00083960E94F50CC1010E941D0D6FE272E0F7
:103CE000CE0183960E94E60C60911D0570911E0521
:103CF00080911F05909120050E948D2E25E93FEBB4
:103D000046ED53E30E94EC2EAB01BC0125E0C1015E
:103D10000E94220D90C264E172E0B3C180E2E7EC40
:103D2000F3E0DF011D928A95E9F76FE172E0CE01C1
:103D300089960E94DB0D609125057091260580E033
:103D400090E00E948B2E20E030E040E251E40E949F
:103D5000E0300E9452314AE0C1010E94820DB1015F
:103D6000CE0189960E94F50CC1010E941D0D6FE2E3
:103D700072E0CE0189960E94E60C4AE060912F0520
:103D8000C1010E94AE0DB101CE0189960E94F50CD1
:103D9000C1010E941D0D6FE272E0CE0189960E9462
:103DA000E60C609125057091260580E090E00E9468
:103DB0008B2E20E030E040E251E40E94E03020E031
:103DC00030E040EA50E40E94862E87FF8BC064E614
:103DD00072E0CE0189960E94E60C609121057091F7
:103DE000220580912305909124051CA21BA21EA2EE
:103DF0001DA218A61FA22AE0A1010E94BA2BB101A0
:103E0000CE0183960E94FC0CBE016D5D7F4FCE01FA
:103E100089960E94F50CCE0183960E941D0D60913B
:103E200021057091220580912305909124050E941F
:103E30008D2E6093BC027093BD028093BE0290935E
:103E4000BF026FE272E0CE0189960E94E60C60919B
:103E500027057091280580E090E00E948B2E20E0DD
:103E600030E048EC52E40E94E030AB01BC0121E0BC
:103E7000C1010E94520DB101CE0189960E94F50C3C
:103E8000C1010E941D0D6FE272E0CE0189960E9471
:103E9000E60C6091290570912A0580E090E00E946F
:103EA0008B2E20E030E048EC52E40E94E030AB0181
:103EB000BC0121E0C1010E94520DB101CE018996E1
:103EC0000E94F50CC1010E941D0D6FE672E0CE014B
:103ED00089960E94E60CCE0189960E94B411CE010B
:103EE0008996BDC166E172E0CE0189960E94E60C1A
:103EF000ECCF80E2E7ECF3E0DF011D928A95E9F771
:103F000064E772E0CE0183960E94DB0D66E272E008
:103F1000CE0183960E94E60C60914206062E000CAC
:103F2000770B4AE0C1010E94820DB101CE01839658
:103F30000E94F50CC1010E941D0D6DE272E0CE01E0
:103F400083960E94E60C61E372E0CE0183960E94A4
:103F5000E60C609125057091260580E090E00E94B6
:103F60008B2E20E030E040E251E40E94E03020E07F
:103F700030E040EA50E40E94862E87FF80C0209106
:103F8000B8023091B9024091BA025091BB026091DF
:103F9000BC027091BD028091BE029091BF020E944E
:103FA00044306B017C018091B4029091B502A091E4
:103FB000B602B091B7020091B0021091B102209107
:103FC000B2023091B302BC01CD01601B710B820BB8
:103FD000930B28EE33E040E050E00E94AA2FCA0184
:103FE000B9010E948D2E9B01AC01C701B6010E9450
:103FF000E0306B017C016093AC027093AD02809362
:10400000AE029093AF029B01AC010E945A3222E0B3
:10401000882339F040E050E0BA01C1010E94220D2E
:1040200005C0B701A601C1010E94520DB101CE0128
:1040300083960E94F50CC1010E941D0D8091BC0267
:104040009091BD02A091BE02B091BF028093B802D0
:104050009093B902A093BA02B093BB028091B402CC
:104060009091B502A091B602B091B7028093B002D0
:104070009093B102A093B202B093B302E4C066E1A0
:1040800072E0CE0183960E94E60CDDC068E372E028
:10409000C1010E94DB0D60E0C1010E943008C10136
:1040A0000E941D0D123009F467C088F5113009F027
:1040B000BFC061E081E00E94B81266E172E0C10118
:1040C0000E94DB0D61E0C1010E943008C1010E9425
:1040D0001D0D1093D0020E94170F28EE33E0029FAF
:1040E000A001039F500D11248A01550F220B330BA1
:1040F000DC01CB01800F911FA21FB31F8093C00270
:104100009093C102A093C202B093C30291C0133036
:1041100009F460C0143009F08BC061E088E00E94AF
:10412000B81262E472E0C1010E94DB0D61E0C101DE
:104130000E943008C1010E941D0D81E08093D302CE
:104140000E94170F28EE33E0029FA001039F500D3D
:1041500011248A01550F220B330BDC01CB01800F98
:10416000911FA21FB31F8093CC029093CD02A09306
:10417000CE02B093CF025CC061E082E00E94B81230
:1041800064EA71E0C1010E94DB0D61E0C1010E949F
:104190003008C1010E941D0DF092D1020E94170F3C
:1041A00028EE33E0029FA001039F500D11248A01E5
:1041B000550F220B330BDC01CB01800F911FA21F87
:1041C000B31F8093C4029093C502A093C602B0931C
:1041D000C7022EC061E084E00E94B81260E472E081
:1041E000C1010E94DB0D61E0C1010E943008C101E4
:1041F0000E941D0D81E08093D2020E94170F28EECD
:1042000033E0029FA001039F500D11248A01550F36
:10421000220B330BDC01CB01800F911FA21FB31FB8
:104220008093C8029093C902A093CA02B093CB02B4
:104230000E9478071DC0B101CE0183960E94F50C43
:10424000C1010E941D0D6FE672E0CE0183960E94AF
:10425000E60CCE0183960E94B411CE0183960E9493
:104260001D0D06C06BE472E087EC93E00E940F36F0
:104270000E94C40960E08FE002C061E08EE00E940D
:10428000710E0E94170F6093E6027093E70280930D
:10429000E8029093E9020E94170F0091E202109148
:1042A000E3022091E4023091E5020C591F4F2F4F99
:1042B0003F4F061717072807390708F079C66AEF36
:1042C00086E70E949212182F6AEF86E70E949212E8
:1042D000C82ED12CE12CF12CF4E0CC0CDD1CEE1C12
:1042E000FF1CFA95D1F7412F50E060E070E0ACE0A0
:1042F000440F551F661F771FAA95D1F7C42AD52AE8
:10430000E62AF72A6AEF86E70E9492128091EB056F
:104310009091EC05A0E0B0E04601570114E0B5949F
:10432000A794979487941A95D1F7881A990AAA0A9C
:10433000BB0AB701A60103E07595679557954795A8
:104340000A95D1F7880F991FAA1FBB1F9A01AB01CD
:10435000281B390B4A0B5B0BA091ED05B091EE05C4
:104360000E94D42F6B017C013BE0F594E794D79435
:10437000C7943A95D1F7A5019401C501B4010E94F3
:1043800074329B01AC016CE05595479537952795A4
:104390006A95D1F7A091EF05B091F0050E94D42F56
:1043A000DC01CB017EE0B595A795979587957A9529
:1043B000D1F7A7019601280F391F4A1F5B1F2093D1
:1043C0002406309325064093260650932706A5E041
:1043D000B0E00E94C92FDC01CB0180589F4FAF4F46
:1043E000BF4F692F7A2F8B2F992787FD9A950E94AF
:1043F0008D2E20E030E048EC52E40E94E0306093E3
:1044000010067093110680931206909313068DEF99
:104410000E94DE138090240690902506A090260628
:10442000B0902706BCE29B1AB1E0AB0AB1086C0160
:10443000E12CF12CFEE0CC0CDD1CEE1CFF1CFA95EF
:10444000D1F74091070650910806052E000C660B27
:10445000770BA4E1440F551F661F771FAA95D1F76C
:10446000C41AD50AE60AF70AA0910906B0910A060D
:10447000A50194010E94D42FC61AD70AE80AF90AA6
:10448000E0E4DE0EE11CF11CBFE0F594E794D79464
:10449000C794BA95D1F7A0910B060A2E000CBB0B5E
:1044A0000E94D42F2B013C011AE075946794579415
:1044B00047941A95D1F7A0910606B0E00E94C92F43
:1044C000DC01CB010BE0B595A795979587950A95EB
:1044D000D1F7BC01CD0170588F4F9F4FA3019201BE
:1044E0000E947432DC01CB012AE0B595A79597951F
:1044F00087952A95D1F79C01AD01405E5F4FA09151
:104500000406B09105060E94D42FDC01CB01905E19
:10451000AF4FBF4FBC01CD013EE095958795779594
:1045200067953A95D1F7A70196010E9474326B0105
:104530007C014FE095958795779567954A95D1F7DA
:104540009B01AC010E9474329B01AC0167E0559560
:104550004795379527956A95D1F7A0910306B0E066
:104560000E94C92FDC01CB0174E0B595A795979502
:1045700087957A95D1F797018601081B190B2A0BAD
:104580003B0BD901C80137FF03C080E090E0DC019C
:1045900081309105A10519E1B10724F080E090E098
:1045A000A0E0B9E1BC01CD01ECE095958795779548
:1045B0006795EA95D1F70E948D2E20E030E040E823
:1045C0005AE30E94EC2E60931406709315068093B4
:1045D00016069093170686E70E94311267EF88E26D
:1045E00096E00E94FD0B80E00E94D11163E086E717
:1045F0000E9488129091530380915403981799F167
:1046000088E296E00E94B10B6C01990FEE08FF085A
:1046100088249C2CAD2CBE2C88E296E00E94B10B25
:10462000AC01990F660B770B75016401C42AD52A7A
:10463000E62AF72A88E296E00E94B10BFE2CED2CC8
:10464000DC2CCC24092E000CAA0BBB0BA701960175
:10465000282B392B4A2B5B2B23962CAF3DAF4EAF2B
:104660005FAF239706C023961CAE1DAE1EAE1FAED5
:1046700023978091240690912506A0912606B0915B
:1046800027066C017D01FF0CCC08DC2C76019C0117
:10469000AD016C2D7C2D8C2D9C2D345F414051093A
:1046A00061097109810991092FA73FAB2A013B01DB
:1046B0004C0159016A017B018C010E94983228AF9C
:1046C00039AF4AAF5BAF6CAF7DAF8EAF2E969FAF69
:1046D0002E97B090FC05A090FB051B2D110F110B20
:1046E000C12ED12EE12EF12E012F0E949832249658
:1046F0002FAF249725963FAF259726964FAF269745
:1047000027965FAF279728966FAF289729967FAF98
:1047100029972A968FAF2A972B969FAF2B97B09009
:10472000FA05A090F9051B2D110F110BC12ED12EEA
:10473000E12EF12E012F2FA53FA9A201B301C40143
:104740000E94983201E10E94913359016A017B0174
:104750008C0124962FAD249725963FAD259726965C
:104760004FAD269727965FAD279728966FAD289770
:1047700029967FAD29972A968FAD2A972B969FADC4
:104780002B970E94C83324962FAF249725963FAFCE
:10479000259726964FAF269727965FAF279728969F
:1047A0006FAF289729967FAF29972A968FAF2A97C0
:1047B0002B969FAF2B97B090F405A090F3051B2D7F
:1047C000110F110BC12ED12EE12EF12E012F2FA58D
:1047D0003FA9A201B301C4010E9498320CE00E94DB
:1047E00091332FA73FAB2A013B014C01B090F60556
:1047F000A090F5051B2D110F110BC12ED12EE12E0E
:10480000F12E012F28AD39AD4AAD5BAD6CAD7DAD5C
:104810008EAD2E969FAD2E970E94983208E00E9492
:10482000AA33AFA4BFA86201730184010E94C833F8
:1048300070588F4F9F4FE091F105F091F2055F01A5
:10484000C12CD12CE12CF12C8701EFA7B8AAC9AA61
:10485000DAAAEBAAFCAA0DAB1EABC12CD12CE12C21
:10486000F12C00E010E00E949832422E3FA74FAB9F
:1048700058AF69AF7AAF8BAF9CAF23968CAD9DAD2F
:10488000AEADBFAD239714E0B595A79597958795E5
:104890001A95D1F7C12CD12C00E1E02EF12CC81AC9
:1048A000D90AEA0AFB0AD701C601FF0CCC08DC2CA6
:1048B00076019C01AD016C2D7C2D8C2D9C2D0FE182
:1048C0000E94913339014A01B62FA72FF82FE92F03
:1048D0003091F8052091F705932F990F990B492FE7
:1048E000592F692F792F892F03E20E9491335901A3
:1048F0006A017B018C0124962FAD249725963FAD4C
:10490000259726964FAD269727965FAD2797289631
:104910006FAD289729967FAD29972A968FAD2A9754
:104920002B969FAD2B970E94C83359016A017B01DA
:104930008C019301A4016B2F7A2F8F2F9E2F0E9441
:10494000D133722E832E942EB52FA62FF72FE82F5A
:10495000592E03E00E949133A72CB82CC92CDB2ED2
:10496000EA2EFF2E0E2F152D0E94D13359016A0118
:104970007B01682E192F03E00E949133062D0E94BF
:10498000D13303E00E949133A72CB82CC92CDB2E25
:10499000EA2EFF2E0E2F152D0E94D13302E00E9429
:1049A00091330E2F0E94D13301E00E9491330E2FDC
:1049B0000E94D13339014A01B62FA72FF82FE92FD2
:1049C000242D3FA54FA958AD69AD7AAD8BAD9CADF7
:1049D00001E20E94AA3359016A017B018C01930113
:1049E000A4016B2F7A2F8F2F9E2F0E94F3322FA7B7
:1049F0003FAB4FAF58AF69AF7AAF8BAF9CAF0DE015
:104A00000E94AA332DAF432E542E652E762E872E6C
:104A1000982E9EAF3091020620910106932F990F98
:104A2000990BADACB42CC52CD62CE72CF82C092D49
:104A30001EAD492F592F692F792F892F0E94983247
:104A40000E94983209E10E94AA3359016A017B0150
:104A50008C012FA53FA94FAD58AD69AD7AAD8BAD97
:104A60009CAD0E94C8332DAF3EAF2A013B014C01E3
:104A7000309100062091FF05932F990F990BAFA459
:104A8000BFA8CFACD8ACE9ACFAAC0BAD1CAD492F8C
:104A9000592F692F792F892F0E94983203E10E94A4
:104AA000AA3359016A017B018C012DAD3EADA201F3
:104AB000B301C4010E94C83308E00E94AA3339013F
:104AC0004A01B62FA72FF82FE92F3091FE0520912C
:104AD000FD05932F990F990B492F592F692F792F86
:104AE000892F04E00E94913359016A017B018C01F6
:104AF0009301A4016B2F7A2F8F2F9E2F0E94C83312
:104B00000E94883120E030E040E85BE30E94EC2E18
:104B1000609318067093190680931A0690931B06EB
:104B20000E94DF1241E262ED86E30E946E120E9453
:104B30001714692F77277093B8056093B7058C0118
:104B400011271093BA050093B905072E000C880BA6
:104B5000990B0E948D2E20E030E04CE753E40E9438
:104B6000443020E030E040E853E40E94EC2E6B013A
:104B70007C01B801110F880B990B0E948D2E9B01AF
:104B8000AC01C701B6010E9445302FE632E143E097
:104B900050E40E94EC2E20E030E040E85AE30E940E
:104BA000EC2E9B01AC010E9445306093AB057093E5
:104BB000AC058093AD059093AE0543E262ED86E3CC
:104BC0000E946E120E941714692F77277093BC05FC
:104BD0006093BB058C0111271093BE050093BD05A2
:104BE000072E000C880B990B0E948D2E20E030E0E0
:104BF0004CE753E40E94443020E030E040E853E4C6
:104C00000E94EC2E6B017C01B80161507109072EE6
:104C1000000C880B990B0E948D2E9B01AC01C701E3
:104C2000B6010E9445302FE632E143E050E40E9495
:104C3000EC2E20E030E040E85AE30E94EC2E20E029
:104C400030E048EC52E40E94E0302AE037ED43EADD
:104C50005CE30E94E03020E030E04AE754E40E9448
:104C6000EC2E6093AF057093B0058093B1059093DF
:104C7000B20520E030E04AE754E40E94E0302091A1
:104C8000AB053091AC054091AD055091AE050E9449
:104C9000EC2E6093B3057093B4058093B5059093A3
:104CA000B60567E1809164050E94921280FF78C08A
:104CB00069E2809164050E949212082F10E0102F83
:104CC000002768E2809164050E949212B801682B67
:104CD000072E000C880B990B0E948D2E20915805F1
:104CE0003091590540915A0550915B050E94EC2E78
:104CF00060936A0570936B0580936C0590936D05C6
:104D00006BE2809164050E949212082F10E0102F30
:104D100000276AE2809164050E949212B801682B14
:104D2000072E000C880B990B0E948D2E20915805A0
:104D30003091590540915A0550915B050E94EC2E27
:104D40006093760570937705809378059093790545
:104D50006DE2809164050E949212082F10E0102FDE
:104D600000276CE2809164050E949212B801682BC2
:104D7000072E000C880B990B0E948D2E2091580550
:104D80003091590540915A0550915B050E94EC2ED7
:104D900060938205709383058093840590938505C5
:104DA00067E1809164050E94921281FF78C069E1F9
:104DB000809164050E949212082F10E0102F0027A6
:104DC00068E1809164050E949212B801682B072E59
:104DD000000C880B990B0E948D2E20915C05309160
:104DE0005D0540915E0550915F050E94EC2E609339
:104DF0006E0570936F0580937005909371056BE15C
:104E0000809164050E949212082F10E0102F002755
:104E10006AE1809164050E949212B801682B072E06
:104E2000000C880B990B0E948D2E20915C0530910F
:104E30005D0540915E0550915F050E94EC2E6093E8
:104E40007A0570937B0580937C0590937D056DE1D9
:104E5000809164050E949212082F10E0102F002705
:104E60006CE1809164050E949212B801682B072EB4
:104E7000000C880B990B0E948D2E20915C053091BF
:104E80005D0540915E0550915F050E94EC2E609398
:104E9000860570938705809388059093890567E25E
:104EA000809165050E94921283FF78C069E280912B
:104EB00065050E949212082F10E0102F002768E26B
:104EC000809165050E949212B801682B072E000C94
:104ED000880B990B0E948D2E209160053091610501
:104EE00040916205509163050E94EC2E6093660527
:104EF0007093670580936805909369056BE28091D4
:104F000065050E949212082F10E0102F00276AE218
:104F1000809165050E949212B801682B072E000C43
:104F2000880B990B0E948D2E2091600530916105B0
:104F300040916205509163050E94EC2E60937205CA
:104F40007093730580937405909375056DE280915D
:104F500065050E949212082F10E0102F00276CE2C6
:104F6000809165050E949212B801682B072E000CF3
:104F7000880B990B0E948D2E209160053091610560
:104F800040916205509163050E94EC2E60937E056E
:104F900070937F0580938005909381050E94170F81
:104FA0006093E2027093E3028093E4029093E5023F
:104FB0000E94170F0091DE021091DF022091E002A3
:104FC0003091E1020E5C1F4F2F4F3F4F061717071E
:104FD0002807390708F06EC08091D0028823A9F015
:104FE000C090C002D090C102E090C202F090C30213
:104FF0000E94170FC616D706E806F90630F410927D
:10500000D00260E081E00E94B8128091D102882332
:10501000A9F0C090C402D090C502E090C602F09002
:10502000C7020E94170FC616D706E806F90630F425
:105030001092D10260E082E00E94B8128091D20208
:105040008823A9F0C090C802D090C902E090CA029B
:10505000F090CB020E94170FC616D706E806F90695
:1050600030F41092D20260E084E00E94B812809185
:10507000D3028823A9F0C090CC02D090CD02E0905A
:10508000CE02F090CF020E94170FC616D706E80690
:10509000F90630F41092D30260E088E00E94B81262
:1050A0000E94170F6093DE027093DF028093E0028C
:1050B0009093E1020E94170F0091DA021091DB0237
:1050C0002091DC023091DD02005F184D2F4F3F4FE1
:1050D000061717072807390708F045C080912105F2
:1050E00090912205A0912305B09124058938934120
:1050F000A105B10574F1609125057091260580E048
:1051000090E00E948B2E20E030E040E251E40E94CB
:10511000E0306B017C0120E030E040E85FE30E947A
:10512000862E87FD16C020E030E040EF51E4C70135
:10513000B6010E94862E87FF0CC068E372E0C101B1
:105140000E94DB0D60E0C1010E943008C1010E9495
:105150001D0D0E94170F6093DA027093DB0280939B
:10516000DC029093DD020E94170F0091D60210918D
:10517000D7022091D8023091D90208571C4E2F4FE8
:105180003F4F061717072807390710F00C94BA1776
:1051900061E088E00E94B81281E08093D3020E940F
:1051A000170FDC01CB010A96A11DB11D8093CC0223
:1051B0009093CD02A093CE02B093CF020E94170F1E
:1051C0006093D6027093D7028093D8029093D9024D
:1051D0000C94B7178091A802882309F4CEC01092CE
:1051E000AA021092A90260E08EE00E94710E61E0B6
:1051F0008FE00E94710E6FE472E0CE0101960E9472
:10520000DB0D61E0CE0101960E943008CE010196CF
:105210000E941D0D84E396E00E94D906811124C0EE
:105220006AE871E0CE0101960E94DB0D61E0CE01DB
:1052300001960E943008CE0101960E941D0D61E08A
:105240008EE00E94710E64E670E080E090E00E94C3
:10525000DD0E60E08EE00E94710E64E670E080E09A
:1052600090E00E94DD0EEBCF40E050EC64E674E489
:1052700084E396E00E94211167E184E396E00E94B6
:10528000E91081E08093380680933F0682E08093A6
:105290003E0666EA71E0CE0101960E94DB0D61E0F8
:1052A000CE0101960E943008CE0101960E941D0D8C
:1052B00068EB71E0CE0101960E94DB0D60E0CE014B
:1052C00001960E943008CE0101960E941D0D40E11A
:1052D00061E070E0CE0101960E94820D61E0CE0196
:1052E00001960E943008CE0101960E941D0D61E0DA
:1052F0008FE00E94710E0E94170F0091EE02109134
:10530000EF022091F0023091F1020A561F4F2F4F09
:105310003F4F061717072807390780F48091A70227
:10532000813011F40E9484080E94170F6093EE02EE
:105330007093EF028093F0029093F1020E94170F96
:105340000091F2021091F3022091F4023091F502E3
:105350000C501E4F2F4F3F4F0617170728073907CE
:1053600050F6A8950E94170F6093F2027093F30213
:105370008093F4029093F502BECF0E94170FC09065
:10538000F202D090F302E090F402F090F50224EFE4
:10539000C20E21E0D21EE11CF11CC616D706E8069B
:1053A000F90658F4A8950E94170F6093F2027093C3
:1053B000F3028093F4029093F5020E940F0B0C9479
:1053C0008F15E7EEF3E01382128248EE53E060E0BF
:1053D00070E0448355836683778386E291E091830E
:1053E000808385EC90E09587848784EC90E09787B4
:1053F000868780EC90E0918B808B81EC90E0938BA2
:10540000828B82EC90E0958B848B86EC90E0978B7E
:10541000868B118E128E138E148EE4E8F4E01086C3
:1054200011861286138692E0908B168A108E178A48
:10543000118A138A148A128AE5E3F5E015AA16AADE
:1054400017AA10AE11AA12AA13AA14AA11AE12AE6C
:1054500013AE14AE1092760510927705109278056F
:1054600010927905109272051092730510927405CE
:105470001092750510927A0510927B0510927C05AA
:1054800010927D051092820510928305109284057A
:105490001092850510927E0510927F05109280056E
:1054A000109281051092860510928705109288054A
:1054B000109289051092920510929305109294050E
:1054C0001092950510928E0510928F0510929005FE
:1054D0001092910510928A0510928B0510928C05FE
:1054E00010928D05109296051092970510929805CE
:1054F000109299051086128620EC21871386148657
:10550000158688E386879787118A138A228B858B75
:10551000148A178A80E8818F8CE1808F80E6828FE1
:105520008CE0838F158E148E10A2168E178E81E05C
:1055300082A31092A205E3EAF5E01486158616868A
:1055400017861086118612861386108A118A128A8F
:10555000138AEFEBF5E01086118612861386148607
:10556000158616861786108A118A128A138A168E55
:10557000178E10A211A2158A148A178A168A118E04
:10558000108E138E128EE3EEF5E011A612A613A66E
:1055900014A615A616A617A610AA11AA12AA13AA2F
:1055A00014AA15AA16AA17AA10AE11AE12AE13AEFF
:1055B00014AE10922006109221061092220610922C
:1055C0002306E8E2F6E01382128244835583668361
:1055D000778328E331E031832083A5E5B7E0139694
:1055E0001C921E92129715961C921E921497179653
:1055F0001C921E9216972AE431E011963C932E934A
:10560000E4E3F6E0138212828FEF8483828783873C
:1056100014861586108A1786128A118A148A138AAC
:10562000178A168AB18FA08F2AE0228F2EE531E0EB
:105630003183208310925107938F848F0895EF92C6
:105640000F931F93CF93DF93E80147FD02C034E02F
:1056500001C034E1E42F440FFF0BF7FF03C0F195C5
:10566000E195F109E32E022F2E2FAE010E94102C9E
:10567000CE01DF91CF911F910F91EF9008958F92FE
:105680009F92AF92BF92CF92DF92EF92FF92CF9311
:10569000DF93EC01688179818A819B8161157105B5
:1056A0008105910521F464E279ED8BE597E02DE128
:1056B00033EF41E050E00E94AA2F49015A019B01BB
:1056C000AC01A7EAB1E40E94C92F6B017C01ACEEEA
:1056D000B4EFA50194010E94D72FDC01CB018C0D02
:1056E0009D1DAE1DBF1DB7FF03C00197A109B048A6
:1056F00088839983AA83BB83BC01CD019F77DF9107
:10570000CF91FF90EF90DF90CF90BF90AF909F90A0
:105710008F9008950E943F2B089584E091E00E94AD
:105720003F2B089560930401709305018093060157
:10573000909307010895FB01DC0102C005900D92D2
:1057400041505040D8F708954532510520F4423079
:1057500010F00C94AF2BFB011082CB010895BB27F6
:105760004A3031F4992322F4BDE2909581959F4F00
:105770000C94F72BBB272A3051F4992342F4BDE255
:1057800090958095709561957F4F8F4F9F4F0C94AA
:10579000CA2BBB27FA01A62F621771058105910557
:1057A000330B30FB66F0AA27660F771F881F991FFF
:1057B000AA1FA21710F0A21B63953850A9F7A05D8D
:1057C000AA3308F0A95DA19336F7B111B193108205
:1057D000CA010C94762E4532510520F4423010F067
:1057E0000C94F62BFB011082CB010895BB27FB0123
:1057F0005527AA27880F991FAA1FA41710F0A41BCA
:1058000083955051B9F7A05DAA3308F0A95DA19323
:10581000009779F7B111B1931192CB010C94762EC8
:105820004F925F926F927F929F92AF92BF92CF9270
:10583000DF92EF92FF920F931F93CF93DF93CDB739
:10584000DEB729970FB6F894DEBF0FBECDBF6A0151
:10585000122FB02E2BE3201720F0FF24F394F00E2C
:1058600002C0BCE3FB2E0F2D27E0AE014F5F5F4F60
:105870000E949E2DAC018981982F9970913031F052
:10588000E1FC06C0E0FE06C090E205C09DE203C058
:105890009BE201C090E0EE2DE07183FF3CC09111CE
:1058A00002C083E001C084E0811718F4212F281B77
:1058B00001C020E0E1110BC0F601822F30E2882305
:1058C00019F031938150FBCFC20ED11C20E09923F7
:1058D00029F0D6019C93F60131966F01C60103961B
:1058E000E2FE0AC03EE4D6013C9341E411964C939B
:1058F000119712963C9306C03EE6F601308341E6CE
:1059000041833283FC01322F40E2332309F442C049
:1059100041933150FACF82FF44C0911102C083E01D
:1059200001C084E0811718F4212F281B01C020E05A
:10593000E1110BC0F601822F30E2882319F0319378
:105940008150FBCFC20ED11C20E0992329F0D60153
:105950009C93F60131966F01C6010396E2FE0BC0DF
:1059600039E4D6013C933EE411963C93119736E41A
:1059700012963C9307C039E6F60130833EE6318348
:1059800036E63283FC01322F40E2332319F0419393
:105990003150FBCFFC01E20FF11D10828EEF9FEF23
:1059A000B7C0F1E0911101C0F0E06F2F70E0141664
:1059B000150624F49A012F5F3F4F02C021E030E02A
:1059C000260F371FBB2029F06B2D70E06F5F7F4FD4
:1059D00002C060E070E0260F371F612F70E02617CD
:1059E00037071CF4121B212F01C020E03E2D387117
:1059F00059F4D601322F60E2332319F06D93315000
:105A0000FBCFC20ED11C20E0FF2331F0D6019C93C6
:105A1000B6016F5F7F4F6B01E1110BC0F601922F52
:105A200030E3992319F031939150FBCFC20ED11C72
:105A300020E09F2D940F3A81782F7071A72E84FF5C
:105A400003C0313309F49150191624F4993018F039
:105A500098E001C091E0E42F852F57FF02C0E0E0FD
:105A600080E06E2F782FE0E0F0E0AEE29A2E3A016F
:105A7000691A71082A01461A570A0B2D10E0119570
:105A8000019511096F3F8FEF780729F4D6019C9299
:105A9000C60101966C014617570784F06616770613
:105AA0006CF47F01E40CF51CA1E0B0E0AC0FBD1F6D
:105AB000EA0EFB1ED7011196BC9002C090E3B92EEE
:105AC000615071093196C60101967C01601771071A
:105AD00024F0D601BC926C01D5CF6417750741F450
